{
  "contractName": "Auth",
  "abi": [
    {
      "anonymous": false,
      "inputs": [
        {
          "indexed": false,
          "internalType": "string",
          "name": "fullname",
          "type": "string"
        },
        {
          "indexed": false,
          "internalType": "string",
          "name": "aadharno",
          "type": "string"
        },
        {
          "indexed": false,
          "internalType": "string",
          "name": "email",
          "type": "string"
        },
        {
          "indexed": false,
          "internalType": "string",
          "name": "contactno",
          "type": "string"
        },
        {
          "indexed": false,
          "internalType": "string",
          "name": "gender",
          "type": "string"
        },
        {
          "indexed": false,
          "internalType": "string",
          "name": "dateofbirth",
          "type": "string"
        },
        {
          "indexed": false,
          "internalType": "string",
          "name": "uaddress",
          "type": "string"
        }
      ],
      "name": "userCreated",
      "type": "event"
    },
    {
      "inputs": [],
      "name": "userCount",
      "outputs": [
        {
          "internalType": "uint256",
          "name": "",
          "type": "uint256"
        }
      ],
      "stateMutability": "view",
      "type": "function",
      "constant": true
    },
    {
      "inputs": [
        {
          "internalType": "string",
          "name": "",
          "type": "string"
        }
      ],
      "name": "userList",
      "outputs": [
        {
          "internalType": "string",
          "name": "fullname",
          "type": "string"
        },
        {
          "internalType": "string",
          "name": "aadharno",
          "type": "string"
        },
        {
          "internalType": "string",
          "name": "email",
          "type": "string"
        },
        {
          "internalType": "string",
          "name": "contactno",
          "type": "string"
        },
        {
          "internalType": "string",
          "name": "gender",
          "type": "string"
        },
        {
          "internalType": "string",
          "name": "dateofbirth",
          "type": "string"
        },
        {
          "internalType": "string",
          "name": "uaddress",
          "type": "string"
        }
      ],
      "stateMutability": "view",
      "type": "function",
      "constant": true
    },
    {
      "inputs": [
        {
          "internalType": "string",
          "name": "_fullname",
          "type": "string"
        },
        {
          "internalType": "string",
          "name": "_aadharno",
          "type": "string"
        },
        {
          "internalType": "string",
          "name": "_email",
          "type": "string"
        },
        {
          "internalType": "string",
          "name": "_contactno",
          "type": "string"
        },
        {
          "internalType": "string",
          "name": "_gender",
          "type": "string"
        },
        {
          "internalType": "string",
          "name": "_dateofbirth",
          "type": "string"
        },
        {
          "internalType": "string",
          "name": "_uaddress",
          "type": "string"
        }
      ],
      "name": "createUser",
      "outputs": [],
      "stateMutability": "nonpayable",
      "type": "function"
    }
  ],
  "bytecode": "0x60806040526000805534801561001457600080fd5b50610e57806100246000396000f3fe608060405234801561001057600080fd5b50600436106100415760003560e01c806307973ccf146100465780635abb69e114610064578063f30e147414610080575b600080fd5b61004e6100b6565b60405161005b9190610636565b60405180910390f35b61007e600480360381019061007991906107ab565b6100bc565b005b61009a60048036038101906100959190610911565b61020d565b6040516100ad97969594939291906109d9565b60405180910390f35b60005481565b6000808154809291906100ce90610aa8565b91905055506040518060e00160405280888152602001878152602001868152602001858152602001848152602001838152602001828152506001876040516101169190610b2c565b908152602001604051809103902060008201518160000190816101399190610d4f565b50602082015181600101908161014f9190610d4f565b5060408201518160020190816101659190610d4f565b50606082015181600301908161017b9190610d4f565b5060808201518160040190816101919190610d4f565b5060a08201518160050190816101a79190610d4f565b5060c08201518160060190816101bd9190610d4f565b509050507f72f7dd62f586e4f06f872ca08a1cb84a0ab6015d522520e5a050f1ff52e62870878787878787876040516101fc97969594939291906109d9565b60405180910390a150505050505050565b60018180516020810182018051848252602083016020850120818352809550505050505060009150905080600001805461024690610b72565b80601f016020809104026020016040519081016040528092919081815260200182805461027290610b72565b80156102bf5780601f10610294576101008083540402835291602001916102bf565b820191906000526020600020905b8154815290600101906020018083116102a257829003601f168201915b5050505050908060010180546102d490610b72565b80601f016020809104026020016040519081016040528092919081815260200182805461030090610b72565b801561034d5780601f106103225761010080835404028352916020019161034d565b820191906000526020600020905b81548152906001019060200180831161033057829003601f168201915b50505050509080600201805461036290610b72565b80601f016020809104026020016040519081016040528092919081815260200182805461038e90610b72565b80156103db5780601f106103b0576101008083540402835291602001916103db565b820191906000526020600020905b8154815290600101906020018083116103be57829003601f168201915b5050505050908060030180546103f090610b72565b80601f016020809104026020016040519081016040528092919081815260200182805461041c90610b72565b80156104695780601f1061043e57610100808354040283529160200191610469565b820191906000526020600020905b81548152906001019060200180831161044c57829003601f168201915b50505050509080600401805461047e90610b72565b80601f01602080910402602001604051908101604052809291908181526020018280546104aa90610b72565b80156104f75780601f106104cc576101008083540402835291602001916104f7565b820191906000526020600020905b8154815290600101906020018083116104da57829003601f168201915b50505050509080600501805461050c90610b72565b80601f016020809104026020016040519081016040528092919081815260200182805461053890610b72565b80156105855780601f1061055a57610100808354040283529160200191610585565b820191906000526020600020905b81548152906001019060200180831161056857829003601f168201915b50505050509080600601805461059a90610b72565b80601f01602080910402602001604051908101604052809291908181526020018280546105c690610b72565b80156106135780601f106105e857610100808354040283529160200191610613565b820191906000526020600020905b8154815290600101906020018083116105f657829003601f168201915b5050505050905087565b6000819050919050565b6106308161061d565b82525050565b600060208201905061064b6000830184610627565b92915050565b6000604051905090565b600080fd5b600080fd5b600080fd5b600080fd5b6000601f19601f8301169050919050565b7f4e487b7100000000000000000000000000000000000000000000000000000000600052604160045260246000fd5b6106b88261066f565b810181811067ffffffffffffffff821117156106d7576106d6610680565b5b80604052505050565b60006106ea610651565b90506106f682826106af565b919050565b600067ffffffffffffffff82111561071657610715610680565b5b61071f8261066f565b9050602081019050919050565b82818337600083830152505050565b600061074e610749846106fb565b6106e0565b90508281526020810184848401111561076a5761076961066a565b5b61077584828561072c565b509392505050565b600082601f83011261079257610791610665565b5b81356107a284826020860161073b565b91505092915050565b600080600080600080600060e0888a0312156107ca576107c961065b565b5b600088013567ffffffffffffffff8111156107e8576107e7610660565b5b6107f48a828b0161077d565b975050602088013567ffffffffffffffff81111561081557610814610660565b5b6108218a828b0161077d565b965050604088013567ffffffffffffffff81111561084257610841610660565b5b61084e8a828b0161077d565b955050606088013567ffffffffffffffff81111561086f5761086e610660565b5b61087b8a828b0161077d565b945050608088013567ffffffffffffffff81111561089c5761089b610660565b5b6108a88a828b0161077d565b93505060a088013567ffffffffffffffff8111156108c9576108c8610660565b5b6108d58a828b0161077d565b92505060c088013567ffffffffffffffff8111156108f6576108f5610660565b5b6109028a828b0161077d565b91505092959891949750929550565b6000602082840312156109275761092661065b565b5b600082013567ffffffffffffffff81111561094557610944610660565b5b6109518482850161077d565b91505092915050565b600081519050919050565b600082825260208201905092915050565b60005b83811015610994578082015181840152602081019050610979565b60008484015250505050565b60006109ab8261095a565b6109b58185610965565b93506109c5818560208601610976565b6109ce8161066f565b840191505092915050565b600060e08201905081810360008301526109f3818a6109a0565b90508181036020830152610a0781896109a0565b90508181036040830152610a1b81886109a0565b90508181036060830152610a2f81876109a0565b90508181036080830152610a4381866109a0565b905081810360a0830152610a5781856109a0565b905081810360c0830152610a6b81846109a0565b905098975050505050505050565b7f4e487b7100000000000000000000000000000000000000000000000000000000600052601160045260246000fd5b6000610ab38261061d565b91507fffffffffffffffffffffffffffffffffffffffffffffffffffffffffffffffff8203610ae557610ae4610a79565b5b600182019050919050565b600081905092915050565b6000610b068261095a565b610b108185610af0565b9350610b20818560208601610976565b80840191505092915050565b6000610b388284610afb565b915081905092915050565b7f4e487b7100000000000000000000000000000000000000000000000000000000600052602260045260246000fd5b60006002820490506001821680610b8a57607f821691505b602082108103610b9d57610b9c610b43565b5b50919050565b60008190508160005260206000209050919050565b60006020601f8301049050919050565b600082821b905092915050565b600060088302610c057fffffffffffffffffffffffffffffffffffffffffffffffffffffffffffffffff82610bc8565b610c0f8683610bc8565b95508019841693508086168417925050509392505050565b6000819050919050565b6000610c4c610c47610c428461061d565b610c27565b61061d565b9050919050565b6000819050919050565b610c6683610c31565b610c7a610c7282610c53565b848454610bd5565b825550505050565b600090565b610c8f610c82565b610c9a818484610c5d565b505050565b5b81811015610cbe57610cb3600082610c87565b600181019050610ca0565b5050565b601f821115610d0357610cd481610ba3565b610cdd84610bb8565b81016020851015610cec578190505b610d00610cf885610bb8565b830182610c9f565b50505b505050565b600082821c905092915050565b6000610d2660001984600802610d08565b1980831691505092915050565b6000610d3f8383610d15565b9150826002028217905092915050565b610d588261095a565b67ffffffffffffffff811115610d7157610d70610680565b5b610d7b8254610b72565b610d86828285610cc2565b600060209050601f831160018114610db95760008415610da7578287015190505b610db18582610d33565b865550610e19565b601f198416610dc786610ba3565b60005b82811015610def57848901518255600182019150602085019450602081019050610dca565b86831015610e0c5784890151610e08601f891682610d15565b8355505b6001600288020188555050505b50505050505056fea264697066735822122018b47866f4f51bc5ad45f6ff2b808fbe17209677949d769e6d93f79ed852bf6464736f6c63430008110033",
  "immutableReferences": {},
  "source": "// SPDX-License-Identifier: MIT\r\npragma solidity >=0.4.22 < 0.9.0 ;\r\n\r\n\r\ncontract Auth{\r\n    uint public userCount = 0;\r\n\r\n    mapping(string => user) public userList;\r\n\r\n    struct user{\r\n        string fullname;\r\n        string aadharno;\r\n        string email;\r\n        string contactno;\r\n        string gender;\r\n        string dateofbirth;\r\n        string uaddress;\r\n    }\r\n\r\n    event userCreated(\r\n        string fullname,\r\n        string aadharno,\r\n        string email,\r\n        string contactno,\r\n        string gender,\r\n        string dateofbirth,\r\n        string uaddress\r\n    );\r\n\r\n    function createUser(string memory _fullname,string memory _aadharno,string memory _email,string memory _contactno,string memory _gender,string memory _dateofbirth,string memory _uaddress) public {\r\n        userCount++;\r\n\r\n        userList[_aadharno] = user(_fullname,_aadharno,_email,_contactno,_gender,_dateofbirth,_uaddress);\r\n\r\n        emit userCreated(_fullname,_aadharno,_email,_contactno,_gender,_dateofbirth,_uaddress);\r\n    }\r\n\r\n}",
  "sourcePath": "D:\\blockproject\\smart_contract\\contracts\\Auth.sol",
  "compiler": {
    "name": "solc",
    "version": "0.8.17+commit.8df45f5f.Emscripten.clang"
  },
  "schemaVersion": "3.4.10",
  "updatedAt": "2022-12-03T07:14:59.564Z",
  "networkType": "ethereum",
  "devdoc": {
    "kind": "dev",
    "methods": {},
    "version": 1
  },
  "userdoc": {
    "kind": "user",
    "methods": {},
    "version": 1
  }
}