{
  "contractName": "Doctor",
  "abi": [
    {
      "anonymous": false,
      "inputs": [
        {
          "indexed": false,
          "internalType": "string",
          "name": "fullname",
          "type": "string"
        },
        {
          "indexed": false,
          "internalType": "string",
          "name": "qualification",
          "type": "string"
        },
        {
          "indexed": false,
          "internalType": "string",
          "name": "registrationNo",
          "type": "string"
        },
        {
          "indexed": false,
          "internalType": "string",
          "name": "contactNo",
          "type": "string"
        },
        {
          "indexed": false,
          "internalType": "string",
          "name": "email",
          "type": "string"
        }
      ],
      "name": "doctorCreated",
      "type": "event"
    },
    {
      "inputs": [],
      "name": "docCount",
      "outputs": [
        {
          "internalType": "uint256",
          "name": "",
          "type": "uint256"
        }
      ],
      "stateMutability": "view",
      "type": "function",
      "constant": true
    },
    {
      "inputs": [
        {
          "internalType": "string",
          "name": "",
          "type": "string"
        }
      ],
      "name": "docList",
      "outputs": [
        {
          "internalType": "string",
          "name": "fullname",
          "type": "string"
        },
        {
          "internalType": "string",
          "name": "qualification",
          "type": "string"
        },
        {
          "internalType": "string",
          "name": "registrationNo",
          "type": "string"
        },
        {
          "internalType": "string",
          "name": "contactNo",
          "type": "string"
        },
        {
          "internalType": "string",
          "name": "email",
          "type": "string"
        }
      ],
      "stateMutability": "view",
      "type": "function",
      "constant": true
    },
    {
      "inputs": [
        {
          "internalType": "string",
          "name": "_fullname",
          "type": "string"
        },
        {
          "internalType": "string",
          "name": "_qualification",
          "type": "string"
        },
        {
          "internalType": "string",
          "name": "_registrationNo",
          "type": "string"
        },
        {
          "internalType": "string",
          "name": "_contactNo",
          "type": "string"
        },
        {
          "internalType": "string",
          "name": "_email",
          "type": "string"
        }
      ],
      "name": "createDoctor",
      "outputs": [],
      "stateMutability": "nonpayable",
      "type": "function"
    }
  ],
  "bytecode": "0x60806040526000805534801561001457600080fd5b50610c71806100246000396000f3fe608060405234801561001057600080fd5b50600436106100405760003560e01c8062f0b2ab146100455780634c4dc6e014610079578063b84e5f0c14610097575b600080fd5b61005f600480360381019061005a919061061a565b6100b3565b6040516100709594939291906106e2565b60405180910390f35b6100816103a7565b60405161008e9190610771565b60405180910390f35b6100b160048036038101906100ac919061078c565b6103ad565b005b6001818051602081018201805184825260208301602085012081835280955050505050506000915090508060000180546100ec906108c2565b80601f0160208091040260200160405190810160405280929190818152602001828054610118906108c2565b80156101655780601f1061013a57610100808354040283529160200191610165565b820191906000526020600020905b81548152906001019060200180831161014857829003601f168201915b50505050509080600101805461017a906108c2565b80601f01602080910402602001604051908101604052809291908181526020018280546101a6906108c2565b80156101f35780601f106101c8576101008083540402835291602001916101f3565b820191906000526020600020905b8154815290600101906020018083116101d657829003601f168201915b505050505090806002018054610208906108c2565b80601f0160208091040260200160405190810160405280929190818152602001828054610234906108c2565b80156102815780601f1061025657610100808354040283529160200191610281565b820191906000526020600020905b81548152906001019060200180831161026457829003601f168201915b505050505090806003018054610296906108c2565b80601f01602080910402602001604051908101604052809291908181526020018280546102c2906108c2565b801561030f5780601f106102e45761010080835404028352916020019161030f565b820191906000526020600020905b8154815290600101906020018083116102f257829003601f168201915b505050505090806004018054610324906108c2565b80601f0160208091040260200160405190810160405280929190818152602001828054610350906108c2565b801561039d5780601f106103725761010080835404028352916020019161039d565b820191906000526020600020905b81548152906001019060200180831161038057829003601f168201915b5050505050905085565b60005481565b6000808154809291906103bf90610922565b91905055506040518060a00160405280868152602001858152602001848152602001838152602001828152506001846040516103fb91906109a6565b9081526020016040518091039020600082015181600001908161041e9190610b69565b5060208201518160010190816104349190610b69565b50604082015181600201908161044a9190610b69565b5060608201518160030190816104609190610b69565b5060808201518160040190816104769190610b69565b509050507fa1910a1a596c56df011305f45838369d4111a40fcc3434aef903f060c8ac9a6e85858585856040516104b19594939291906106e2565b60405180910390a15050505050565b6000604051905090565b600080fd5b600080fd5b600080fd5b600080fd5b6000601f19601f8301169050919050565b7f4e487b7100000000000000000000000000000000000000000000000000000000600052604160045260246000fd5b610527826104de565b810181811067ffffffffffffffff82111715610546576105456104ef565b5b80604052505050565b60006105596104c0565b9050610565828261051e565b919050565b600067ffffffffffffffff821115610585576105846104ef565b5b61058e826104de565b9050602081019050919050565b82818337600083830152505050565b60006105bd6105b88461056a565b61054f565b9050828152602081018484840111156105d9576105d86104d9565b5b6105e484828561059b565b509392505050565b600082601f830112610601576106006104d4565b5b81356106118482602086016105aa565b91505092915050565b6000602082840312156106305761062f6104ca565b5b600082013567ffffffffffffffff81111561064e5761064d6104cf565b5b61065a848285016105ec565b91505092915050565b600081519050919050565b600082825260208201905092915050565b60005b8381101561069d578082015181840152602081019050610682565b60008484015250505050565b60006106b482610663565b6106be818561066e565b93506106ce81856020860161067f565b6106d7816104de565b840191505092915050565b600060a08201905081810360008301526106fc81886106a9565b9050818103602083015261071081876106a9565b9050818103604083015261072481866106a9565b9050818103606083015261073881856106a9565b9050818103608083015261074c81846106a9565b90509695505050505050565b6000819050919050565b61076b81610758565b82525050565b60006020820190506107866000830184610762565b92915050565b600080600080600060a086880312156107a8576107a76104ca565b5b600086013567ffffffffffffffff8111156107c6576107c56104cf565b5b6107d2888289016105ec565b955050602086013567ffffffffffffffff8111156107f3576107f26104cf565b5b6107ff888289016105ec565b945050604086013567ffffffffffffffff8111156108205761081f6104cf565b5b61082c888289016105ec565b935050606086013567ffffffffffffffff81111561084d5761084c6104cf565b5b610859888289016105ec565b925050608086013567ffffffffffffffff81111561087a576108796104cf565b5b610886888289016105ec565b9150509295509295909350565b7f4e487b7100000000000000000000000000000000000000000000000000000000600052602260045260246000fd5b600060028204905060018216806108da57607f821691505b6020821081036108ed576108ec610893565b5b50919050565b7f4e487b7100000000000000000000000000000000000000000000000000000000600052601160045260246000fd5b600061092d82610758565b91507fffffffffffffffffffffffffffffffffffffffffffffffffffffffffffffffff820361095f5761095e6108f3565b5b600182019050919050565b600081905092915050565b600061098082610663565b61098a818561096a565b935061099a81856020860161067f565b80840191505092915050565b60006109b28284610975565b915081905092915050565b60008190508160005260206000209050919050565b60006020601f8301049050919050565b600082821b905092915050565b600060088302610a1f7fffffffffffffffffffffffffffffffffffffffffffffffffffffffffffffffff826109e2565b610a2986836109e2565b95508019841693508086168417925050509392505050565b6000819050919050565b6000610a66610a61610a5c84610758565b610a41565b610758565b9050919050565b6000819050919050565b610a8083610a4b565b610a94610a8c82610a6d565b8484546109ef565b825550505050565b600090565b610aa9610a9c565b610ab4818484610a77565b505050565b5b81811015610ad857610acd600082610aa1565b600181019050610aba565b5050565b601f821115610b1d57610aee816109bd565b610af7846109d2565b81016020851015610b06578190505b610b1a610b12856109d2565b830182610ab9565b50505b505050565b600082821c905092915050565b6000610b4060001984600802610b22565b1980831691505092915050565b6000610b598383610b2f565b9150826002028217905092915050565b610b7282610663565b67ffffffffffffffff811115610b8b57610b8a6104ef565b5b610b9582546108c2565b610ba0828285610adc565b600060209050601f831160018114610bd35760008415610bc1578287015190505b610bcb8582610b4d565b865550610c33565b601f198416610be1866109bd565b60005b82811015610c0957848901518255600182019150602085019450602081019050610be4565b86831015610c265784890151610c22601f891682610b2f565b8355505b6001600288020188555050505b50505050505056fea2646970667358221220b12786535bd5ee17954ce11b50e6c173fd12c84949a2ddc501894025487da96664736f6c63430008110033",
  "immutableReferences": {},
  "source": "// SPDX-License-Identifier: MIT\r\npragma solidity >=0.4.22 < 0.9.0 ;\r\n\r\ncontract Doctor{\r\n    uint public docCount = 0;\r\n\r\n    mapping(string => doctor) public docList;\r\n\r\n    struct doctor{\r\n        string fullname;\r\n        string qualification;\r\n        string registrationNo;\r\n        string contactNo;\r\n        string email;\r\n    }\r\n\r\n    //An event is emitted, it stores the arguments passed in transaction logs.\r\n\r\n    event doctorCreated(\r\n        string fullname,\r\n        string qualification,\r\n        string registrationNo,\r\n        string contactNo,\r\n        string email\r\n    );\r\n\r\n    function createDoctor(string memory _fullname,string memory _qualification,string memory _registrationNo,string memory _contactNo,string memory _email) public{\r\n        docCount++;\r\n\r\n        docList[_registrationNo] = doctor(_fullname,_qualification,_registrationNo,_contactNo,_email);\r\n\r\n        emit doctorCreated(_fullname, _qualification, _registrationNo, _contactNo, _email);\r\n    }\r\n}",
  "sourcePath": "D:\\blockproject\\smart_contract\\contracts\\Doctor.sol",
  "compiler": {
    "name": "solc",
    "version": "0.8.17+commit.8df45f5f.Emscripten.clang"
  },
  "schemaVersion": "3.4.10",
  "updatedAt": "2022-12-03T07:15:00.424Z",
  "networkType": "ethereum",
  "devdoc": {
    "kind": "dev",
    "methods": {},
    "version": 1
  },
  "userdoc": {
    "kind": "user",
    "methods": {},
    "version": 1
  }
}